:1000000009C00EC00DC00CC00BC00AC009C008C09A
:1000100007C006C011241FBECFE9CDBFC4D0CDC0DC
:10002000EFCF8370806188BBC39A81E0982F9A9547
:10003000F1F7C3988A95F1F70895EF92FF920F9325
:100040001F93E82EF62E80E0ECDF10E000E08F2D0D
:10005000881F8827881F880F9E2D991F9927991F11
:10006000892BDFDF88B3110F90E0969587959695E1
:1000700087958170182B0F5F083019F0EE0CFF0C7C
:10008000E6CF80E0CEDF80E0CCDF812F1F910F91A3
:10009000FF90EF90089584E06CE4CFDF80E068E7A4
:1000A000CCDF80E06CE7C9DF089584E06CE4C5DF55
:1000B00080E06AE7C2DF80E06EE7BFDF089520E0FE
:1000C00040E65AEECA010197F1F72F5F2A30D1F7C7
:1000D000089580E86CE4B1DF80E064E6AEDF80E0A4
:1000E0006CE6ABDF20E040E65AEECA010197F1F77B
:1000F0002F5F2A30D1F7B29BFECF80E06CE49DDF0A
:10010000089580E46CE499DF8AE66CE296DF80E093
:1001100064E693DF80E06CE690DF20E040E65AEE94
:10012000CA010197F1F72F5F2A30D1F7B29BFECFBA
:10013000089580E46CE481DF8FEF6CE27EDF80E085
:1001400064E77BDF80E06CE778DF20E040E65AEE92
:10015000CA010197F1F72F5F2A30D1F7B29BFECF8A
:1001600008958FE187BB80E188BB20E040E65AEE2E
:10017000CA010197F1F72F5F2A30D1F7BA98C29AD6
:10018000089518BA80EE9EE20197F1F717BA089524
:10019000E8DF9FDFCEDFB5DF18BA80EE9EE2019781
:1001A000F1F717BA0895F4DF80E385BF85B7806261
:0E01B00085BF889585B78F7DF8CFF894FFCF77
:00000001FF
